{
  "contractName": "loyaltySettings",
  "abi": [
    {
      "constant": true,
      "inputs": [
        {
          "name": "",
          "type": "uint256"
        }
      ],
      "name": "LoyaltyList",
      "outputs": [
        {
          "name": "_value",
          "type": "uint256"
        },
        {
          "name": "_depositTime",
          "type": "uint256"
        },
        {
          "name": "_rewardTime",
          "type": "uint256"
        }
      ],
      "payable": false,
      "stateMutability": "view",
      "type": "function"
    },
    {
      "constant": true,
      "inputs": [],
      "name": "loyaltyfaucet",
      "outputs": [
        {
          "name": "",
          "type": "address"
        }
      ],
      "payable": false,
      "stateMutability": "view",
      "type": "function"
    },
    {
      "constant": true,
      "inputs": [],
      "name": "currentMiners",
      "outputs": [
        {
          "name": "",
          "type": "uint256"
        }
      ],
      "payable": false,
      "stateMutability": "view",
      "type": "function"
    },
    {
      "constant": false,
      "inputs": [],
      "name": "renounceOwnership",
      "outputs": [],
      "payable": false,
      "stateMutability": "nonpayable",
      "type": "function"
    },
    {
      "constant": true,
      "inputs": [],
      "name": "timeLegnth",
      "outputs": [
        {
          "name": "",
          "type": "uint256"
        }
      ],
      "payable": false,
      "stateMutability": "view",
      "type": "function"
    },
    {
      "constant": true,
      "inputs": [],
      "name": "owner",
      "outputs": [
        {
          "name": "",
          "type": "address"
        }
      ],
      "payable": false,
      "stateMutability": "view",
      "type": "function"
    },
    {
      "constant": true,
      "inputs": [],
      "name": "isOwner",
      "outputs": [
        {
          "name": "",
          "type": "bool"
        }
      ],
      "payable": false,
      "stateMutability": "view",
      "type": "function"
    },
    {
      "constant": true,
      "inputs": [],
      "name": "bonusAccount",
      "outputs": [
        {
          "name": "",
          "type": "address"
        }
      ],
      "payable": false,
      "stateMutability": "view",
      "type": "function"
    },
    {
      "constant": true,
      "inputs": [
        {
          "name": "",
          "type": "address"
        }
      ],
      "name": "loyaltyTimestamp",
      "outputs": [
        {
          "name": "_miner",
          "type": "address"
        },
        {
          "name": "_loyaltyNeeded",
          "type": "bool"
        },
        {
          "name": "_rewardApproved",
          "type": "bool"
        },
        {
          "name": "_value",
          "type": "uint256"
        },
        {
          "name": "_rewardAmount",
          "type": "uint256"
        },
        {
          "name": "_loyaltyDays",
          "type": "uint256"
        },
        {
          "name": "_multiplier",
          "type": "uint256"
        },
        {
          "name": "_depositTime",
          "type": "uint256"
        },
        {
          "name": "_rewardTime",
          "type": "uint256"
        }
      ],
      "payable": false,
      "stateMutability": "view",
      "type": "function"
    },
    {
      "constant": false,
      "inputs": [
        {
          "name": "newOwner",
          "type": "address"
        }
      ],
      "name": "transferOwnership",
      "outputs": [],
      "payable": false,
      "stateMutability": "nonpayable",
      "type": "function"
    },
    {
      "anonymous": false,
      "inputs": [
        {
          "indexed": true,
          "name": "_from",
          "type": "address"
        },
        {
          "indexed": true,
          "name": "_to",
          "type": "address"
        },
        {
          "indexed": false,
          "name": "_value",
          "type": "uint256"
        }
      ],
      "name": "Transfer",
      "type": "event"
    },
    {
      "anonymous": false,
      "inputs": [
        {
          "indexed": true,
          "name": "_owner",
          "type": "address"
        },
        {
          "indexed": true,
          "name": "_spender",
          "type": "address"
        },
        {
          "indexed": false,
          "name": "_value",
          "type": "uint256"
        }
      ],
      "name": "Approval",
      "type": "event"
    },
    {
      "anonymous": false,
      "inputs": [
        {
          "indexed": true,
          "name": "previousOwner",
          "type": "address"
        },
        {
          "indexed": true,
          "name": "newOwner",
          "type": "address"
        }
      ],
      "name": "OwnershipTransferred",
      "type": "event"
    },
    {
      "constant": false,
      "inputs": [
        {
          "name": "_loyaltyfaucet",
          "type": "address"
        }
      ],
      "name": "setfaucetAddress",
      "outputs": [
        {
          "name": "",
          "type": "address"
        }
      ],
      "payable": false,
      "stateMutability": "nonpayable",
      "type": "function"
    },
    {
      "constant": false,
      "inputs": [
        {
          "name": "_bonusAccount",
          "type": "address"
        }
      ],
      "name": "setbonusAccount",
      "outputs": [
        {
          "name": "",
          "type": "address"
        }
      ],
      "payable": false,
      "stateMutability": "nonpayable",
      "type": "function"
    },
    {
      "constant": false,
      "inputs": [],
      "name": "loyaltyBonus1",
      "outputs": [
        {
          "name": "multiplierAdded",
          "type": "bool"
        }
      ],
      "payable": true,
      "stateMutability": "payable",
      "type": "function"
    },
    {
      "constant": false,
      "inputs": [],
      "name": "loyaltyBonus2",
      "outputs": [
        {
          "name": "multiplierAdded",
          "type": "bool"
        }
      ],
      "payable": true,
      "stateMutability": "payable",
      "type": "function"
    },
    {
      "constant": false,
      "inputs": [],
      "name": "verifyBlockLoyalty",
      "outputs": [
        {
          "name": "verified",
          "type": "bool"
        }
      ],
      "payable": false,
      "stateMutability": "nonpayable",
      "type": "function"
    },
    {
      "constant": false,
      "inputs": [],
      "name": "claimReward",
      "outputs": [
        {
          "name": "transferComplete",
          "type": "bool"
        }
      ],
      "payable": false,
      "stateMutability": "nonpayable",
      "type": "function"
    },
    {
      "constant": false,
      "inputs": [],
      "name": "withdrawLoyalty",
      "outputs": [
        {
          "name": "withdrawComplete",
          "type": "bool"
        }
      ],
      "payable": false,
      "stateMutability": "nonpayable",
      "type": "function"
    },
    {
      "constant": false,
      "inputs": [
        {
          "name": "_miner",
          "type": "address"
        },
        {
          "name": "_value",
          "type": "uint256"
        }
      ],
      "name": "depositLoyalty",
      "outputs": [
        {
          "name": "LoyaltyAccepted",
          "type": "bool"
        }
      ],
      "payable": false,
      "stateMutability": "nonpayable",
      "type": "function"
    }
  ],
  "bytecode": "0x6080604081905260006001819055642e90edd0006002819055600355603c60048190556005556006805461ffff191690556305f5e10060085563077359406009556308f0d180600a558054600160a060020a0319163317808255600160a060020a0316917f8be0079c531659141344cd1fd0a4f28419497f9722a3daafe3b4186f6b6457e0908290a36113ce806100976000396000f3006080604052600436106100fb5763ffffffff7c010000000000000000000000000000000000000000000000000000000060003504166303493da0811461010057806306754d321461013d5780630701012d1461017357806310c1800c146101885780631fe51fbd146101af578063715018a6146101cb57806374f4f9bb146101e25780638da5cb5b146101f75780638f32d59b1461020c5780639586599e1461022157806398b29b06146102365780639e8b5125146102a8578063a6e1af82146102bd578063a7dc70b8146102d2578063b88a802f146102f3578063c229970414610308578063f2fde38b14610310578063f383ca4614610331575b600080fd5b34801561010c57600080fd5b50610121600160a060020a0360043516610355565b60408051600160a060020a039092168252519081900360200190f35b34801561014957600080fd5b50610155600435610396565b60408051938452602084019290925282820152519081900360600190f35b34801561017f57600080fd5b506101216103b7565b34801561019457600080fd5b5061019d6103cc565b60408051918252519081900360200190f35b6101b76103d2565b604080519115158252519081900360200190f35b3480156101d757600080fd5b506101e0610578565b005b3480156101ee57600080fd5b5061019d6105e2565b34801561020357600080fd5b506101216105e8565b34801561021857600080fd5b506101b76105f7565b34801561022d57600080fd5b50610121610608565b34801561024257600080fd5b50610257600160a060020a0360043516610617565b60408051600160a060020a03909a168a5297151560208a0152951515888801526060880194909452608087019290925260a086015260c085015260e084015261010083015251908190036101200190f35b3480156102b457600080fd5b506101b7610690565b3480156102c957600080fd5b506101b7610902565b3480156102de57600080fd5b50610121600160a060020a0360043516610a7e565b3480156102ff57600080fd5b506101b7610ac6565b6101b7610d2a565b34801561031c57600080fd5b506101e0600160a060020a0360043516610ec7565b34801561033d57600080fd5b506101b7600160a060020a0360043516602435610ee6565b600061035f6105f7565b151561036a57600080fd5b506007805473ffffffffffffffffffffffffffffffffffffffff1916600160a060020a03831617905590565b600c6020526000908152604090208054600182015460029092015490919083565b600654620100009004600160a060020a031681565b60015481565b336000818152600b60205260408120805491929091600160a060020a031614610447576040805160e560020a62461bcd02815260206004820152602b60248201526000805160206113838339815191526044820152600080516020611363833981519152606482015290519081900360840190fd5b600754604051600160a060020a0390911690600090670de0b6b3a76400009082818181858883f19350505050158015610484573d6000803e3d6000fd5b50600754604080513481529051600160a060020a039092169130917fddf252ad1be2c89b69c2b068fc378daa952ba7f163c4a11628f55a4df523b3ef919081900360200190a38054600160a060020a031633141561056f57670de0b6b3a7640000341015610562576040805160e560020a62461bcd02815260206004820152603560248201527f506c656173652073656e642074686520636f727265637420616d6f756e74207460448201527f6f20656e746572206c6f79616c747920626f6e75730000000000000000000000606482015290519081900360840190fd5b600a546004820155610574565b600091505b5090565b6105806105f7565b151561058b57600080fd5b60008054604051600160a060020a03909116907f8be0079c531659141344cd1fd0a4f28419497f9722a3daafe3b4186f6b6457e0908390a36000805473ffffffffffffffffffffffffffffffffffffffff19169055565b60045481565b600054600160a060020a031690565b600054600160a060020a0316331490565b600754600160a060020a031681565b600b602052600090815260409020805460018201546002830154600384015460048501546005860154600690960154600160a060020a0386169660ff7401000000000000000000000000000000000000000088048116977501000000000000000000000000000000000000000000900416959493929189565b336000908152600b60205260408120739bb1e675cf9d585cf615382959d74c337d50337f908054600160a060020a03163314610718576040805160e560020a62461bcd02815260206004820152602b60248201526000805160206113838339815191526044820152600080516020611363833981519152606482015290519081900360840190fd5b8054600160a060020a03163314156108f8576001805460001901905560065481546002830154604080517f23b872dd00000000000000000000000000000000000000000000000000000000815262010000909404600160a060020a0390811660048601529283166024850152604484019190915251908416916323b872dd9160648083019260209291908290030181600087803b1580156107b857600080fd5b505af11580156107cc573d6000803e3d6000fd5b505050506040513d60208110156107e257600080fd5b505080546001820154604080517fa9059cbb000000000000000000000000000000000000000000000000000000008152600160a060020a0393841660048201526024810192909252519184169163a9059cbb916044808201926020929091908290030181600087803b15801561085757600080fd5b505af115801561086b573d6000803e3d6000fd5b505050506040513d602081101561088157600080fd5b5050336000908152600b60205260408120805475ffffffffffffffffffffffffffffffffffffffffffff19168155600181018290556002810182905560038101829055600481018290556005810182905560060155805475ffff0000000000000000000000000000000000000000191681556108fd565b600092505b505090565b336000908152600b60205260408120805474ff0000000000000000000000000000000000000000191674010000000000000000000000000000000000000000178155600681015442116109c5576040805160e560020a62461bcd02815260206004820152602660248201527f55736572732072657761726420686173206e6f7420796574206265656e20617060448201527f70726f7665640000000000000000000000000000000000000000000000000000606482015290519081900360840190fd5b8054600160a060020a03163314610a26576040805160e560020a62461bcd02815260206004820152601e60248201527f557365727320686173206e6f74206465706f736974656420746f6b656e730000604482015290519081900360640190fd5b8060060154421115610a7557805475ff00000000000000000000000000000000000000000019167501000000000000000000000000000000000000000000178155610a6f611238565b50610574565b60009150610574565b6000610a886105f7565b1515610a9357600080fd5b506006805475ffffffffffffffffffffffffffffffffffffffff0000191662010000600160a060020a0384160217905590565b336000908152600b60205260408120600381015460011115610b58576040805160e560020a62461bcd02815260206004820152603a60248201527f55736572206d75737420776169742074686520617070726f706961746520746960448201527f6d65206265666f726520636c61696d696e67206c6f79616c7479000000000000606482015290519081900360840190fd5b6003810154600010610bda576040805160e560020a62461bcd02815260206004820152603160248201527f557365722063616e6e6f7420636c61696d206c6f79616c74792072657761726460448201527f20747769636520696e206f6e6520646179000000000000000000000000000000606482015290519081900360840190fd5b8054600160a060020a03163314610c3d576040805160e560020a62461bcd02815260206004820152602b60248201526000805160206113838339815191526044820152600080516020611363833981519152606482015290519081900360840190fd5b805475ff000000000000000000000000000000000000000000191675010000000000000000000000000000000000000000001781556003810154600111610cd55780600201546305f5e10082600301546305f5e100846004015485600101546201410f0202811515610cab57fe5b0402836002015401811515610cbc57fe5b0401600282015542600582018190556004540160068201555b8054750100000000000000000000000000000000000000000075ff00000000000000000000000000000000000000000019918216811780845560006003850155600654921660ff909216151502178155610574565b336000818152600b60205260408120805491929091600160a060020a031614610d9f576040805160e560020a62461bcd02815260206004820152602b60248201526000805160206113838339815191526044820152600080516020611363833981519152606482015290519081900360840190fd5b600754604051600160a060020a03909116906000906706f05b59d3b200009082818181858883f19350505050158015610ddc573d6000803e3d6000fd5b50600754604080513481529051600160a060020a039092169130917fddf252ad1be2c89b69c2b068fc378daa952ba7f163c4a11628f55a4df523b3ef919081900360200190a38054600160a060020a031633141561056f576706f05b59d3b20000341015610eba576040805160e560020a62461bcd02815260206004820152603560248201527f506c656173652073656e642074686520636f727265637420616d6f756e74207460448201527f6f20656e746572206c6f79616c747920626f6e75730000000000000000000000606482015290519081900360840190fd5b6009546004820155610574565b610ecf6105f7565b1515610eda57600080fd5b610ee3816112e5565b50565b604080517f23b872dd000000000000000000000000000000000000000000000000000000008152336004820152306024820152604481018390529051600091739bb1e675cf9d585cf615382959d74c337d50337f9182916323b872dd91606480830192602092919082900301818887803b158015610f6357600080fd5b505af1158015610f77573d6000803e3d6000fd5b505050506040513d6020811015610f8d57600080fd5b505060035483101561100f576040805160e560020a62461bcd02815260206004820152602c60248201527f5573657220646964206e6f742073656e6420746865206d696e696d756d206c6f60448201527f79616c747920616d6f756e740000000000000000000000000000000000000000606482015290519081900360840190fd5b60035483106111bb57600180600082825401925050819055506060604051908101604052808481526020014281526020014260045401815250600c600060015481526020019081526020016000206000820151816000015560208201518160010155604082015181600201559050506101206040519081016040528085600160a060020a03168152602001600115158152602001600660009054906101000a900460ff1615158152602001848152602001600081526020016000815260200160085481526020014281526020014260045401815250600b600033600160a060020a0316600160a060020a0316815260200190815260200160002060008201518160000160006101000a815481600160a060020a030219169083600160a060020a0316021790555060208201518160000160146101000a81548160ff02191690831515021790555060408201518160000160156101000a81548160ff021916908315150217905550606082015181600101556080820151816002015560a0820151816003015560c0820151816004015560e082015181600501556101008201518160060155905050611231565b6040805160e560020a62461bcd02815260206004820152603060248201527f55736572206e6565647320746f20617070726f766520636f6e7472616374207460448201527f6f206465706f73697420746f6b656e7300000000000000000000000000000000606482015290519081900360840190fd5b5092915050565b336000908152600b602052604081206004546006820154420381151561125a57fe5b0460038201819055600111156112d957600060038201558054600160a060020a031633146112d4576040805160e560020a62461bcd02815260206004820152602b60248201526000805160206113838339815191526044820152600080516020611363833981519152606482015290519081900360840190fd5b610574565b80600301549150610574565b600160a060020a03811615156112fa57600080fd5b60008054604051600160a060020a03808516939216917f8be0079c531659141344cd1fd0a4f28419497f9722a3daafe3b4186f6b6457e091a36000805473ffffffffffffffffffffffffffffffffffffffff1916600160a060020a0392909216919091179055560064657220616464726573730000000000000000000000000000000000000000006d696e6572206164647265737320646f6573206e6f74206d617463682073656ea165627a7a72305820d3dbd0be2da877fd57b7bc541ecadbee332d4981aadbacf801e884cd235ac6600029",
  "source": "pragma solidity 0.4.25;\r\n\r\nimport './Sparkle.sol';\r\n\r\n\r\n\r\ncontract loyaltySettings is Ownable{\r\n\r\nusing SafeMath for uint256;\r\nuint256 public currentMiners = 0;  // @dev a method to keep tract of current miners\r\nuint256 private loyaltyRequired = 2000 * (10**8); // @dev token amount required for loyalty contract (optional can be modified)\r\nuint256 private loyaltyNeeded = loyaltyRequired; // @dev modify required loyalty\r\nuint256 public timeLegnth = 60; //@dev exspected loyalty legnth (optional can be modified by contract owner only )  24 hrs = 86400 seconds\r\nuint256 private _timeLegnth = timeLegnth;\r\nbool private _rewardApproved = false; //@dev set bool values false by default\r\nbool private _loyaltyNeeded = false; //@dev set bool values false by default\r\naddress public loyaltyfaucet; //@dev main token faucet address (for security reasons tokens are stored externally)\r\naddress public bonusAccount;  //@dev main address to recieve ether (for security reasons ether is forwarded externally)\r\n\r\nuint256 private _multiplier = 1.0000000 * 10e7;\r\nuint256 private a = 1.25000000 * 10e7;\r\nuint256 private b = 1.50000000 * 10e7;\r\n\r\n\r\n\r\nmapping (address =>  ProofOfLoyalty) public loyaltyTimestamp; //@dev map loyalty hodlers call data\r\n\r\n\r\nstruct ProofOfLoyalty{\r\n\r\n   address _miner;\r\n   bool    _loyaltyNeeded;\r\n   bool    _rewardApproved;\r\n   uint256 _value;\r\n   uint256 _rewardAmount;\r\n   uint256 _loyaltyDays;\r\n   uint256 _multiplier;\r\n   uint256 _depositTime;\r\n   uint256 _rewardTime;\r\n\r\n}\r\n\r\n\r\nmapping (uint256 =>  publicloyaltyList ) public LoyaltyList;   // @dev mapping public loyalty list call data\r\n\r\nstruct publicloyaltyList {\r\n\r\n  uint256 _value;\r\n  uint256 _depositTime;\r\n  uint256 _rewardTime;\r\n\r\n}\r\n\r\n/**\r\n* @dev define events which take place by openzepplin SparkleToken.sol\r\n* to communicate with functions inside this contract (This may not be\r\n* required depending on the development of the external token)\r\n*/\r\n\r\nevent Transfer(\r\n    address indexed _from,\r\n    address indexed _to,\r\n    uint256 _value\r\n);\r\n\r\nevent Approval(\r\n    address indexed _owner,\r\n    address indexed _spender,\r\n    uint256 _value\r\n);\r\n\r\n\r\n/**\r\n* @dev Adjust Minimum Block Age To Respected Time Fram\r\n\r\nfunction adjustloyaltyAge (uint256 _timeLegnth) external onlyOwner returns (uint256) {\r\ntimeLegnth = _timeLegnth;\r\nreturn _timeLegnth;\r\n}\r\n\r\n*/\r\n\r\n/**\r\n* @dev Contract owner sets ProofOfLoyalty token faucet address\r\n*/\r\n\r\nfunction setfaucetAddress (address _loyaltyfaucet) external onlyOwner returns(address){\r\nloyaltyfaucet = _loyaltyfaucet;\r\nreturn _loyaltyfaucet;\r\n}\r\n\r\n/**\r\n* @dev Contract owner sets ProofOfLoyalty bonus deposit address\r\n*/\r\n\r\nfunction setbonusAccount (address _bonusAccount) external onlyOwner returns(address){\r\nbonusAccount = _bonusAccount;\r\nreturn _bonusAccount;\r\n}\r\n\r\n\r\n/**\r\n* @dev user can deposit 0.5 eth to activate loyalty _multiplier x1.25\r\n*/\r\n\r\nfunction loyaltyBonus1 () external payable returns (bool multiplierAdded){\r\nProofOfLoyalty storage POL = loyaltyTimestamp[msg.sender];\r\nrequire (msg.sender == POL._miner,'miner address does not match sender address');\r\nbonusAccount.transfer (0.5 ether);\r\nemit Transfer (this, bonusAccount, msg.value);\r\nif (POL._miner == msg.sender){\r\n  require (msg.value >= 0.5 ether,'Please send the correct amount to enter loyalty bonus');\r\n  POL._multiplier = a;\r\n}\r\nelse{\r\n  POL._multiplier = POL._multiplier;\r\n  return false;\r\n }\r\n}\r\n\r\n\r\n/**\r\n* @dev user can deposit 1 eth to activate loyalty _multiplier x1.50\r\n*/\r\n\r\nfunction loyaltyBonus2 () external payable returns (bool multiplierAdded){\r\nProofOfLoyalty storage POL = loyaltyTimestamp[msg.sender];\r\nrequire (msg.sender == POL._miner,'miner address does not match sender address');\r\nbonusAccount.transfer(1.0 ether);\r\nemit Transfer (this, bonusAccount, msg.value);\r\nif (POL._miner == msg.sender){\r\n  require (msg.value >= 1 ether,'Please send the correct amount to enter loyalty bonus');\r\n  POL._multiplier = b;\r\n }\r\n else {\r\n  POL._multiplier = POL._multiplier;\r\n  return false;\r\n }\r\n}\r\n\r\n\r\n\r\n/**\r\n* @dev A method for loyalty hodlers to verify block loyalty\r\n*/\r\n\r\nfunction verifyBlockLoyalty () external returns (bool verified) {\r\nProofOfLoyalty storage POL = loyaltyTimestamp[msg.sender];\r\nrequire(POL._loyaltyNeeded = true, 'User is not a loyalty holder');\r\nrequire(block.timestamp > POL._rewardTime,'Users reward has not yet been approved');\r\nrequire(msg.sender == POL._miner,'Users has not deposited tokens');\r\nif (block.timestamp > POL._rewardTime) {\r\n  POL._rewardApproved = true;\r\n  dailyCounter();\r\n}\r\nelse{\r\n  return false;\r\n  revert(\"Loyalty age not accepted\");\r\n }\r\n}\r\n\r\n\r\n\r\n/**\r\n* @dev internal function to count days since user last reward\r\n*/\r\n\r\nfunction dailyCounter () internal returns (uint256) {\r\nProofOfLoyalty storage POL = loyaltyTimestamp[msg.sender];\r\nPOL._loyaltyDays = (block.timestamp-POL._rewardTime)/timeLegnth;\r\nif (POL._loyaltyDays < 1){\r\n  POL._loyaltyDays = 0;\r\n  require (msg.sender == POL._miner,'miner address does not match sender address');\r\n}\r\nelse{\r\n  return POL._loyaltyDays;\r\n }\r\n}\r\n\r\n/**\r\n* @dev A method for loyalty hodlers to claim loyalty reward daily and will not allow users to claim twice\r\n* in the event a user can claim twice in one day user will be returned the same value as before (0 *_value) + _value = _value\r\n*/\r\n\r\nfunction claimReward () external returns (bool transferComplete) {\r\nProofOfLoyalty storage POL = loyaltyTimestamp[msg.sender];\r\nrequire (POL._loyaltyDays >= 1,'User must wait the appropiate time before claiming loyalty');\r\nrequire (POL._loyaltyDays > 0,'User cannot claim loyalty reward twice in one day');\r\nrequire (msg.sender == POL._miner,'miner address does not match sender address');\r\nrequire (POL._rewardApproved = true,\"Users reward has not yet been approved\");\r\nif (POL._loyaltyDays >= 1) {\r\n  POL._rewardAmount = ((POL._rewardAmount+((( 0.00082191 * 10e7)*POL._value)*POL._multiplier/10e7)*POL._loyaltyDays)/10e7) + POL._rewardAmount;\r\n  POL._depositTime = block.timestamp;\r\n  POL._rewardTime = timeLegnth+block.timestamp;\r\n}\r\nif (POL._rewardApproved = true){\r\n  POL._loyaltyDays = 0;\r\n  POL._rewardApproved = _rewardApproved;\r\n}\r\nelse {\r\n  POL._rewardAmount = POL._rewardAmount;\r\n  revert(\"User has not deposited any tokens\");\r\n  return false;\r\n }\r\n}\r\n\r\n/**\r\n* @dev allowsloyalty hodler to withdraw tokens stored in the account\r\n* for daily reward structure, user must deposit tokens in order to claim rewards\r\n*/\r\n\r\nfunction withdrawLoyalty ( ) external returns (bool withdrawComplete){\r\nSparkle token = Sparkle(0x9bb1E675CF9D585Cf615382959D74C337d50337F);\r\nProofOfLoyalty storage POL = loyaltyTimestamp[msg.sender];\r\nrequire (POL._value == POL._value, 'Please user the same address used for loyalty deposit');\r\nrequire (POL._rewardAmount == POL._rewardAmount, 'Please user the same address used for loyalty deposit');\r\nrequire (msg.sender == POL._miner,'miner address does not match sender address');\r\nif (msg.sender == POL._miner) {\r\n  currentMiners -= 1;\r\n  token.transferFrom(loyaltyfaucet,POL._miner, POL._rewardAmount);\r\n  token.transfer(POL._miner,POL._value);\r\n  delete loyaltyTimestamp[msg.sender];\r\n  delete POL._loyaltyNeeded;\r\n  delete POL._rewardApproved;\r\n  //POL._loyaltyNeeded = _loyaltyNeeded;\r\n  //POL._rewardApproved = _rewardApproved;\r\n}\r\nelse{\r\n  return false;\r\n }\r\n}\r\n\r\n/**\r\n* @dev depositloyalty allows users to deposit tokens and partisipate in POL\r\n* bi weekly reward structure, user must deposit tokens in order to claim rewards\r\n*/\r\n\r\nfunction depositLoyalty( address _miner,  uint256 _value) external returns (bool LoyaltyAccepted){\r\nSparkle token = Sparkle (0x9bb1E675CF9D585Cf615382959D74C337d50337F);\r\ntoken.transferFrom(msg.sender, this, _value);\r\nrequire(_value >= loyaltyNeeded,'User did not send the minimum loyalty amount');\r\nif ( _value >= loyaltyNeeded) {\r\n  currentMiners += 1;\r\n  LoyaltyList[currentMiners] = publicloyaltyList(_value,block.timestamp,timeLegnth+block.timestamp);\r\n  loyaltyTimestamp[msg.sender] = ProofOfLoyalty(_miner, true, _rewardApproved, _value, 0, 0,_multiplier,block.timestamp,timeLegnth+block.timestamp);\r\n}\r\nelse {\r\n  currentMiners = currentMiners;\r\n  revert(\"User needs to approve contract to deposit tokens\");\r\n  return false;\r\n     }\r\n   }\r\n}\r\n",
  "sourcePath": "C:/Users/Jonah/Documents/SmartContracts/SparkleContracts/Sparkle-Proof-Of-Loyalty/contracts/loyaltySettings.sol",
  "compiler": {
    "name": "solc",
    "version": "0.4.25+commit.59dbf8f1.Linux.g++"
  },
  "schemaVersion": "3.0.19",
  "updatedAt": "2020-01-08T09:17:25.950Z",
  "devdoc": {
    "methods": {
      "claimReward()": {
        "details": "A method for loyalty hodlers to claim loyalty reward daily and will not allow users to claim twice\r in the event a user can claim twice in one day user will be returned the same value as before (0 *_value) + _value = _value\r"
      },
      "depositLoyalty(address,uint256)": {
        "details": "depositloyalty allows users to deposit tokens and partisipate in POL\r bi weekly reward structure, user must deposit tokens in order to claim rewards\r"
      },
      "isOwner()": {
        "return": "true if `msg.sender` is the owner of the contract.\r"
      },
      "loyaltyBonus1()": {
        "details": "user can deposit 0.5 eth to activate loyalty _multiplier x1.25\r"
      },
      "loyaltyBonus2()": {
        "details": "user can deposit 1 eth to activate loyalty _multiplier x1.50\r"
      },
      "owner()": {
        "return": "the address of the owner.\r"
      },
      "renounceOwnership()": {
        "details": "Allows the current owner to relinquish control of the contract.\r"
      },
      "setbonusAccount(address)": {
        "details": "Contract owner sets ProofOfLoyalty bonus deposit address\r"
      },
      "setfaucetAddress(address)": {
        "details": "Contract owner sets ProofOfLoyalty token faucet address\r"
      },
      "transferOwnership(address)": {
        "details": "Allows the current owner to transfer control of the contract to a newOwner.\r",
        "params": {
          "newOwner": "The address to transfer ownership to.\r"
        }
      },
      "verifyBlockLoyalty()": {
        "details": "A method for loyalty hodlers to verify block loyalty\r"
      },
      "withdrawLoyalty()": {
        "details": "allowsloyalty hodler to withdraw tokens stored in the account\r for daily reward structure, user must deposit tokens in order to claim rewards\r"
      }
    }
  },
  "userdoc": {
    "methods": {
      "renounceOwnership()": {
        "notice": "Renouncing to ownership will leave the contract without an owner.\r It will not be possible to call the functions with the `onlyOwner`\r modifier anymore.\r"
      }
    }
  }
}